:100000000C942A000C9447000C9447000C94470071
:100010000C9447000C9447000C94CF170C944700A5
:100020000C9447000C9447000C9463180C94470000
:100030000C9447000C9447000C9447000C94470024
:100040000C9447000C9447000C9447000C94470014
:100050000C94470011241FBECFE5D8E0DEBFCDBF12
:1000600011E0A0E6B0E0ECE4F3E302C005900D92ED
:10007000AE3CB107D9F711E0AEECB1E001C01D9282
:10008000A83DB107E1F70E94EA180C94A4190C945A
:100090000000EF92FF920F931F937B018C0120E0F1
:1000A00030E040E05FE40E94490388238CF0C801FF
:1000B000B70120E030E040E05FE40E94C1010E940F
:1000C000A9039B01AC01205030404040504806C07D
:1000D000C801B7010E94A9039B01AC01B901CA0183
:1000E0001F910F91FF90EF900895A0E0B0E0EBE733
:1000F000F0E00C942819DC012B01FA019C9192305C
:1001000008F439C1EB018881823008F433C194309E
:1001100069F4843009F02FC111969C91119789815F
:10012000981709F428C1ACE6B0E025C1843009F481
:1001300021C18230A9F4923009F01DC19A01AD01AC
:1001400088E0EA010990AE01E90109929E0181501F
:10015000C1F7E201898111969C918923818308C1AD
:10016000923009F407C112962D903C901397EB0141
:100170008A819B811496AD90BD90CD90DC901797AD
:10018000EC80FD800E811F819101281B390BB90184
:1001900037FF04C066277727621B730B6032710537
:1001A0000CF061C0121613066CF537014801062EDB
:1001B00004C096948794779467940A94D2F721E0C8
:1001C00030E040E050E004C0220F331F441F551FB1
:1001D0006A95D2F721503040404050402E213F21B7
:1001E00040235123211531054105510521F021E01E
:1001F00030E040E050E079018A01E628F72808293C
:1002000019293CC0232BD1F1260E371E350146019A
:10021000062E04C096948794779467940A94D2F734
:1002200021E030E040E050E004C0220F331F441FC3
:10023000551F6A95D2F721503040404050402A2146
:100240003B214C215D21211531054105510521F04E
:1002500021E030E040E050E059016A01A628B728CB
:10026000C828D9280BC0821593052CF01C01AA249C
:10027000BB24650103C0EE24FF24870111969C91E5
:10028000D20111968C91981709F445C0992339F041
:10029000A80197012A193B094C095D0906C0A6016E
:1002A00095012E193F09400B510B57FD08C01182D3
:1002B0003382228224833583468357831DC081E0A5
:1002C00081833382228288279927DC01821B930B4A
:1002D000A40BB50B84839583A683B7830DC0220F2F
:1002E000331F441F551F24833583468357838281E0
:1002F000938101979383828324813581468157813D
:10030000DA01C9010197A109B1098F5F9F4FAF4F72
:10031000BF4328F30BC0918333822282EA0CFB1C7B
:100320000C1D1D1DE482F5820683178383E0808304
:10033000248135814681578157FF1AC0C901AA27F8
:1003400097FDA095BA2F81709070A070B0705695EF
:10035000479537952795822B932BA42BB52B848318
:100360009583A683B7838281938101969383828349
:10037000DF0101C0D201CD01CDB7DEB7E2E10C94BF
:100380004419A0E2B0E0E7ECF1E00C943419698381
:100390007A838B839C832D833E834F835887E9E048
:1003A000EE2EF12CEC0EFD1ECE010196B7010E943F
:1003B0009A058E010F5E1F4FCE010596B8010E946F
:1003C0009A058A8991E089278A8BC701B801AE0115
:1003D000475E5F4F0E9475000E94C504A096E6E04C
:1003E0000C945019A0E2B0E0E8EFF1E00C9434195D
:1003F00069837A838B839C832D833E834F835887C5
:10040000F9E0EF2EF12CEC0EFD1ECE010196B701A6
:100410000E949A058E010F5E1F4FCE010596B8010E
:100420000E949A05C701B801AE01475E5F4F0E9466
:1004300075000E94C504A096E6E00C945019A0E255
:10044000B0E0E5E2F2E00C94281969837A838B83AB
:100450009C832D833E834F835887CE010196BE0136
:10046000675F7F4F0E949A05CE010596BE016F5EC1
:100470007F4F0E949A059985923088F08989823051
:10048000C8F0943019F4823051F404C0843029F457
:10049000923081F48CE690E0C6C0923049F420E0BE
:1004A0009A858A89981321E02A87CE010996BBC0D4
:1004B000823049F420E09A858A89981321E02A8BBA
:1004C000CE014196B0C02D843E844F8458886D88FB
:1004D0007E888F88988CEE24FF248701AA24BB2471
:1004E000650140E050E060E070E0E0E0F0E0C10174
:1004F00081709070892BE9F0E60CF71C081D191D1E
:100500009A01AB012A0D3B1D4C1D5D1D80E090E062
:10051000A0E0B0E0E614F7040805190520F481E036
:1005200090E0A0E0B0E0BA01A901480F591F6A1F8E
:100530007B1FAA0CBB1CCC1CDD1C97FE08C081E0F5
:1005400090E0A0E0B0E0A82AB92ACA2ADB2A3196B6
:10055000E032F10549F0660C771C881C991C569412
:10056000479437942794C3CFFA85EA892B893C892D
:100570008B859C85280F391F2E5F3F4F17C0CA01FE
:1005800081709070892B61F016950795F794E79428
:1005900080E090E0A0E0B0E8E82AF92A0A2B1B2BC3
:1005A00076956795579547952F5F3F4F77FDE7CF36
:1005B0000CC0440F551F661F771F17FD4160EE0CDE
:1005C000FF1C001F111F21503040403090E05907A0
:1005D00090E0690790E4790760F32B8F3C8FDB0193
:1005E000CA018F779070A070B07080349105A1051A
:1005F000B10561F447FD0AC0E114F10401051105DC
:1006000029F0405C5F4F6F4F7F4F40781A8EFE1786
:1006100011F081E08A8F4D8F5E8F6F8F78A383E01A
:10062000898FCE0149960E94C504A096E2E10C9400
:100630004419A8E1B0E0EFE1F3E00C9434196983C8
:100640007A838B839C832D833E834F83588789E0F5
:10065000E82EF12CEC0EFD1ECE010196B7010E9492
:100660009A058E010F5E1F4FCE010596B8010E94BC
:100670009A058985823040F08989823028F0C70147
:10068000B8010E94120601C08FEF6896E6E00C9454
:100690005019A8E1B0E0EFE4F3E00C943419698359
:1006A0007A838B839C832D833E834F83588789E095
:1006B000E82EF12CEC0EFD1ECE010196B7010E9432
:1006C0009A058E010F5E1F4FCE010596B8010E945C
:1006D0009A058985823040F08989823028F0C701E7
:1006E000B8010E94120601C08FEF6896E6E00C94F4
:1006F0005019A8E1B0E0EFE7F3E00C9434196983F6
:100700007A838B839C832D833E834F83588789E034
:10071000E82EF12CEC0EFD1ECE010196B7010E94D1
:100720009A058E010F5E1F4FCE010596B8010E94FB
:100730009A058985823040F08989823028F0C70186
:10074000B8010E94120601C081E06896E6E00C94B0
:100750005019ACE0B0E0EFEAF3E00C94381969838B
:100760007A838B839C83CE010196BE016B5F7F4FA2
:100770000E949A058D81823061F1823050F184307F
:1007800021F48E81882351F12EC02F81388537FDC9
:1007900020C06E812F3131051CF06623F9F023C093
:1007A0008EE190E0821B930B29853A854B855C8511
:1007B00004C056954795379527958A95D2F76623B5
:1007C000B1F050954095309521953F4F4F4F5F4F79
:1007D0000EC020E030E040E050E009C02FEF3FEFD6
:1007E0004FEF5FE704C020E030E040E050E8B9019F
:1007F000CA012C96E2E00C945419A8E0B0E0E3E0C2
:10080000F4E00C9430197B018C01611571058105B0
:10081000910519F482E0898360C083E089838EE1C9
:10082000C82ED12CDC82CB82ED82FE820F8318870A
:10083000C801B7010E947604FC013197F7FF3BC065
:10084000222733272E1B3F0B57016801022E04C0BD
:10085000D694C794B794A7940A94D2F740E050E096
:1008600060E070E081E090E0A0E0B0E004C0880FBC
:10087000991FAA1FBB1F2A95D2F70197A109B10999
:100880008E219F21A023B1230097A105B10521F05E
:1008900041E050E060E070E04A295B296C297D2945
:1008A0004D835E836F8378878EE190E08E1B9F0B74
:1008B0009C838B8312C0309781F00E2E04C0EE0C07
:1008C000FF1C001F111F0A94D2F7ED82FE820F83D6
:1008D0001887CE1ADF0ADC82CB821A82CE010196FB
:1008E0000E94C5042896EAE00C944C19EF92FF92FE
:1008F0000F931F937B018C0180E0E81680E0F806DF
:1009000081E0080780E0180788F48FEFE816F1040B
:100910000105110531F028F088E090E0A0E0B0E09A
:1009200017C080E090E0A0E0B0E012C080E0E816E0
:1009300080E0F80680E0080781E0180728F088E1E9
:1009400090E0A0E0B0E004C080E190E0A0E0B0E082
:1009500020E230E040E050E0281B390B4A0B5B0BF3
:1009600004C016950795F794E7948A95D2F7F70196
:10097000EC58FF4F8081281B310941095109C901F9
:100980001F910F91FF90EF900895DF92EF92FF92E9
:100990000F931F93FC01E480F58006811781D180BD
:1009A0008081823048F480E090E0A0E1B0E0E82A65
:1009B000F92A0A2B1B2BA5C0843009F49FC0823072
:1009C00021F4EE24FF24870105C0E114F1040105A0
:1009D000110519F4E0E0F0E096C0628173819FEFA9
:1009E000623879070CF05BC022E83FEF261B370B1B
:1009F0002A3131052CF020E030E040E050E02AC000
:100A0000B801A701022E04C07695679557954795C2
:100A10000A94D2F781E090E0A0E0B0E004C0880F33
:100A2000991FAA1FBB1F2A95D2F70197A109B109E7
:100A30008E219F21A023B1230097A105B10521F0AC
:100A400081E090E0A0E0B0E09A01AB01282B392BC7
:100A50004A2B5B2BDA01C9018F779070A070B070C0
:100A600080349105A105B10539F427FF09C0205C48
:100A70003F4F4F4F5F4F04C0215C3F4F4F4F5F4F81
:100A8000E0E0F0E02030A0E03A07A0E04A07A0E470
:100A90005A0710F0E1E0F0E079018A0127C06038E0
:100AA000710564F5FB01E158FF4FD801C7018F774D
:100AB0009070A070B07080349105A105B10539F433
:100AC000E7FE0DC080E490E0A0E0B0E004C08FE35A
:100AD00090E0A0E0B0E0E80EF91E0A1F1B1F17FF10
:100AE00005C016950795F794E794319687E016951B
:100AF0000795F794E7948A95D1F705C0EE24FF2473
:100B00008701EFEFF0E06E2F679566276795902FCE
:100B10009F77D794DD24D7948E2F8695492F462B27
:100B2000582F5D29B701CA011F910F91FF90EF90D7
:100B3000DF900895FC01DB01408151812281622F09
:100B40006F7770E0221F2227221F9381892F880F41
:100B5000822B282F30E0991F9927991F11969C937B
:100B6000119721153105A9F541155105610571054B
:100B700011F482E037C082E89FEF13969C938E9326
:100B800012979A01AB0167E0220F331F441F551FD4
:100B90006A95D1F783E08C930DC0220F331F441F59
:100BA000551F12968D919C911397019713969C93C4
:100BB0008E931297203080E0380780E0480780E469
:100BC000580758F314962D933D934D935C931797C4
:100BD00008952F3F310579F44115510561057105DF
:100BE00019F484E08C93089564FF03C081E08C9332
:100BF00012C01C9210C02F57304013963C932E9376
:100C0000129783E08C9387E0440F551F661F771F70
:100C10008A95D1F7706414964D935D936D937C9390
:100C2000179708951F93DC01FB019C91923008F403
:100C300047C08081823008F443C0943051F411964B
:100C40001C91843099F58181682F70E0611B7109D6
:100C50003FC0843021F0923031F48230B9F181818B
:100C6000882389F12DC011961C9111978230F1F0E3
:100C700081811817D9F412962D913C911397828196
:100C800093818217930794F028173907BCF01496C4
:100C90008D919D910D90BC91A02D2481358146812F
:100CA0005781281739074A075B0718F4112341F0C9
:100CB0000AC082179307A407B50740F4112319F05F
:100CC00061E070E005C06FEF7FEF02C060E070E0B0
:100CD000CB011F910895DF93CF93CDB7DEB70E946C
:100CE000C906E2E5F0E01082A3E5B0E0E3E5F0E05C
:100CF000808188608C93A3E5B0E0E3E5F0E080813B
:100D000080648C93A9E5B0E0E9E5F0E08081826041
:100D10008C93A3E5B0E0E3E5F0E0808180638C9301
:100D2000A3E5B0E0E3E5F0E0808182608C93CF91B1
:100D3000DF910895DF93CF93CDB7DEB70E94C90648
:100D4000E4E4F0E01082A5E4B0E0E5E4F0E08081C6
:100D500088608C93A5E4B0E0E5E4F0E080818F7BCF
:100D60008C93A9E5B0E0E9E5F0E0808180688C93A0
:100D7000A5E4B0E0E5E4F0E0808180618C93A5E437
:100D8000B0E0E5E4F0E0808185608C93CF91DF9165
:100D90000895DF93CF93CDB7DEB7AFE5B0E0EFE5D1
:100DA000F0E0808180688C93CF91DF910895DF938C
:100DB000CF93CDB7DEB7ABE5B0E0EBE5F0E08081F7
:100DC00080648C93A5E5B0E0E5E5F0E0808181608A
:100DD0008C93A5E5B0E0E5E5F0E080818D7F8C9314
:100DE000CF91DF910895DF93CF93CDB7DEB7ABE519
:100DF000B0E0EBE5F0E0808180688C93A5E5B0E0A1
:100E0000E5E5F0E0808184608C93A5E5B0E0E5E560
:100E1000F0E08081877F8C93CF91DF910895DF93FD
:100E2000CF93CDB7DEB7ABE5B0E0EBE5F0E0808186
:100E300080628C93CF91DF910895DF93CF9300D0A0
:100E400000D00F92CDB7DEB78A836B8319828A8177
:100E5000282F30E03D832C838C819D81813091054A
:100E6000D1F02C813D81223031052CF48C819D8183
:100E7000009761F01FC02C813D812230310581F047
:100E80008C819D818330910581F014C0EAE3F0E00C
:100E90008B81808311C0E7E3F0E08B8180830CC0FD
:100EA000E4E3F0E08B81808307C0E1E3F0E08B8135
:100EB000808302C081E0898389810F900F900F9019
:100EC0000F900F90CF91DF910895DF93CF9300D0D3
:100ED00000D00F92CDB7DEB78A836B8319828A81E7
:100EE000282F30E03D832C838C819D8181309105BA
:100EF000D1F02C813D81223031052CF48C819D81F3
:100F0000009761F01FC02C813D812230310581F0B6
:100F10008C819D818330910581F014C0EBE3F0E07A
:100F20008B81808311C0E8E3F0E08B8180830CC06B
:100F3000E5E3F0E08B81808307C0E2E3F0E08B81A2
:100F4000808302C081E0898389810F900F900F9088
:100F50000F900F90CF91DF910895DF93CF9300D042
:100F600000D000D0CDB7DEB78A837C836B83198233
:100F70008A81282F30E03E832D838D819E818130B0
:100F80009105E1F02D813E81223031052CF48D81D7
:100F90009E81009761F027C02D813E81223031056E
:100FA000A1F08D819E8183309105B1F01CC0E9E3F1
:100FB000F0E08081EB81FC81808317C0E6E3F0E004
:100FC0008081EB81FC81808310C0E3E3F0E08081CD
:100FD000EB81FC81808309C0E0E3F0E08081EB815C
:100FE000FC81808302C081E08983898126960FB6C7
:100FF000F894DEBF0FBECDBFCF91DF910895DF9390
:10100000CF9300D000D0CDB7DEB78A8319828A8112
:10101000282F30E03C832B838B819C81813091058C
:10102000E9F02B813C81223031052CF48B819C81AD
:10103000009761F02BC02B813C8122303105B1F04B
:101040008B819C8183309105C9F020C0ABE3B0E077
:10105000EBE3F0E0808180958C931AC0A8E3B0E0C8
:10106000E8E3F0E0808180958C9312C0A5E3B0E0C6
:10107000E5E3F0E0808180958C930AC0A2E3B0E0C4
:10108000E2E3F0E0808180958C9302C081E0898367
:1010900089810F900F900F900F90CF91DF9108955D
:1010A000DF93CF93CDB7DEB728970FB6F894DEBFA6
:1010B0000FBECDBF8A836B834C8319828B818830AE
:1010C00008F0F4C08C81882309F077C08A81282F2A
:1010D00030E038872F838F8198858130910559F1D1
:1010E0002F813885223031052CF48F819885009727
:1010F00069F060C02F8138852230310589F18F81F8
:1011000098858330910509F440C054C0AAE3B0E04B
:10111000EAE3F0E08081482F8B81282F30E081E0E6
:1011200090E0022E02C0880F991F0A94E2F7809582
:1011300084238C93BDC0A7E3B0E0E7E3F0E08081B7
:10114000482F8B81282F30E081E090E0022E02C0F2
:10115000880F991F0A94E2F7809584238C93A8C086
:10116000A4E3B0E0E4E3F0E08081482F8B81282FF6
:1011700030E081E090E0022E02C0880F991F0A94AF
:10118000E2F7809584238C9393C0A1E3B0E0E1E380
:10119000F0E08081482F8B81282F30E081E090E0C3
:1011A000022E02C0880F991F0A94E2F780958423CB
:1011B0008C937EC081E089837BC08C81813009F073
:1011C00072C08A81282F30E03E832D838D819E81DD
:1011D0008130910549F12D813E81223031052CF479
:1011E0008D819E81009761F05BC02D813E81223010
:1011F000310571F18D819E8183309105E9F150C0F7
:10120000AAE3B0E0EAE3F0E08081482F8B81282F49
:1012100030E081E090E0022E02C0880F991F0A940E
:10122000E2F7842B8C9344C0A7E3B0E0E7E3F0E05F
:101230008081482F8B81282F30E081E090E0022EC2
:1012400002C0880F991F0A94E2F7842B8C9330C058
:10125000A4E3B0E0E4E3F0E08081482F8B81282F05
:1012600030E081E090E0022E02C0880F991F0A94BE
:10127000E2F7842B8C931CC0A1E3B0E0E1E3F0E043
:101280008081482F8B81282F30E081E090E0022E72
:1012900002C0880F991F0A94E2F7842B8C9308C030
:1012A00081E0898305C081E0898302C081E0898370
:1012B000898128960FB6F894DEBF0FBECDBFCF91BF
:1012C000DF910895DF93CF93CDB7DEB728970FB6A0
:1012D000F894DEBF0FBECDBF8A836B834C83198227
:1012E0008B81883008F0F4C08C81882309F077C0A6
:1012F0008A81282F30E038872F838F81988581302D
:10130000910559F12F813885223031052CF48F81D8
:101310009885009769F060C02F81388522303105AB
:1013200089F18F8198858330910509F440C054C0BC
:10133000ABE3B0E0EBE3F0E08081482F8B81282F16
:1013400030E081E090E0022E02C0880F991F0A94DD
:10135000E2F7809584238C93BDC0A8E3B0E0E8E376
:10136000F0E08081482F8B81282F30E081E090E0F1
:10137000022E02C0880F991F0A94E2F780958423F9
:101380008C93A8C0A5E3B0E0E5E3F0E08081482FAE
:101390008B81282F30E081E090E0022E02C0880F80
:1013A000991F0A94E2F7809584238C9393C0A2E35B
:1013B000B0E0E2E3F0E08081482F8B81282F30E01D
:1013C00081E090E0022E02C0880F991F0A94E2F794
:1013D000809584238C937EC081E089837BC08C813F
:1013E000813009F072C08A81282F30E03E832D833E
:1013F0008D819E818130910549F12D813E81223080
:1014000031052CF48D819E81009761F05BC02D81A8
:101410003E812230310571F18D819E8183309105AD
:10142000E9F150C0ABE3B0E0EBE3F0E08081482F9E
:101430008B81282F30E081E090E0022E02C0880FDF
:10144000991F0A94E2F7842B8C9344C0A8E3B0E080
:10145000E8E3F0E08081482F8B81282F30E081E0A5
:1014600090E0022E02C0880F991F0A94E2F7842BA5
:101470008C9330C0A5E3B0E0E5E3F0E08081482F35
:101480008B81282F30E081E090E0022E02C0880F8F
:10149000991F0A94E2F7842B8C931CC0A2E3B0E05E
:1014A000E2E3F0E08081482F8B81282F30E081E05B
:1014B00090E0022E02C0880F991F0A94E2F7842B55
:1014C0008C9308C081E0898305C081E0898302C0D4
:1014D00081E08983898128960FB6F894DEBF0FBE1C
:1014E000CDBFCF91DF910895DF93CF93CDB7DEB716
:1014F00027970FB6F894DEBF0FBECDBF8A836B83EC
:101500005D834C8319828B81883008F074C08A8196
:10151000282F30E03F832E834E815F81413051057B
:1015200059F18E819F818230910534F42E813F8163
:101530002115310569F05CC04E815F814230510553
:1015400079F18E819F818330910509F43DC050C0AF
:10155000E9E3F0E08081282F30E08B81882F90E054
:10156000A90102C0559547958A95E2F7CA01817095
:10157000EC81FD81808341C0E6E3F0E08081282F8B
:1015800030E08B81882F90E0A90102C055954795E6
:101590008A95E2F7CA018170EC81FD8180832DC0BC
:1015A000E3E3F0E08081282F30E08B81882F90E00A
:1015B000A90102C0559547958A95E2F7CA01817045
:1015C000EC81FD81808319C0E0E3F0E08081282F69
:1015D00030E08B81882F90E0A90102C05595479596
:1015E0008A95E2F7CA018170EC81FD81808305C094
:1015F00081E0898302C081E08983898127960FB6C3
:10160000F894DEBF0FBECDBFCF91DF910895DF9379
:10161000CF9300D000D00F92CDB7DEB78A836B8313
:1016200019828B81883008F072C08A81282F30E0BF
:101630003D832C838C819D818130910549F12C81E2
:101640003D81223031052CF48C819D81009761F021
:101650005BC02C813D812230310571F18C819D81EF
:1016600083309105E9F150C0ABE3B0E0EBE3F0E08B
:101670008081482F8B81282F30E081E090E0022E7E
:1016800002C0880F991F0A94E2F784278C9341C007
:10169000A8E3B0E0E8E3F0E08081482F8B81282FB9
:1016A00030E081E090E0022E02C0880F991F0A947A
:1016B000E2F784278C932DC0A5E3B0E0E5E3F0E0EA
:1016C0008081482F8B81282F30E081E090E0022E2E
:1016D00002C0880F991F0A94E2F784278C9319C0DF
:1016E000A2E3B0E0E2E3F0E08081482F8B81282F75
:1016F00030E081E090E0022E02C0880F991F0A942A
:10170000E2F784278C9305C081E0898302C081E0E1
:10171000898389810F900F900F900F900F90CF9138
:10172000DF910895DF93CF93CDB7DEB7A6E2B0E0A7
:10173000E6E2F0E0808180688C93A7E2B0E0E7E227
:10174000F0E0808180648C93A7E2B0E0E7E2F0E013
:1017500080818F778C93A6E2B0E0E6E2F0E08081B2
:1017600086608C93A6E2B0E0E6E2F0E080818F7DB7
:101770008C93CF91DF910895DF93CF9300D0CDB7B5
:10178000DEB7A7E2B0E0E7E2F0E08081807E8C93F4
:10179000A7E2B0E0E7E2F0E080818C93A6E2B0E05F
:1017A000E6E2F0E0808180648C93A6E2B0E0E6E2BD
:1017B000F0E080818F7D8C93E6E2F0E0808182957D
:1017C0008F70882F90E0817090700097A9F3A6E247
:1017D000B0E0E6E2F0E0808180618C93E4E2F0E04A
:1017E000808191819A83898389819A810F900F905A
:1017F000CF91DF910895DF93CF93CDB7DEB783E02C
:101800006FEF0E941D07CF91DF910895DF93CF9373
:10181000CDB7DEB783E064E041E00E945008CF918D
:10182000DF910895DF93CF930F92CDB7DEB7898311
:1018300083E069810E9465070F90CF91DF91089541
:10184000DF93CF930F92CDB7DEB7898383E064E057
:1018500049810E9462090F90CF91DF910895DF9333
:10186000CF93CDB7DEB783E064E00E94070BCF9142
:10187000DF910895DF93CF93CDB7DEB72F970FB6E3
:10188000F894DEBF0FBECDBF8F8781E060E040E0FF
:101890000E94620981E061E040E00E9462098F8558
:1018A000982F917082E060E0492F0E9462098F8535
:1018B0008695982F917082E061E0492F0E9462091D
:1018C0008F8586958695982F917082E062E0492FEA
:1018D0000E9462098F85869586958695982F9170CE
:1018E00082E063E0492F0E9462098F8582958F70A4
:1018F000982F917082E064E0492F0E9462098F85E1
:10190000829586958770982F917082E065E0492FC7
:101910000E9462098F858295869586958370982F9F
:10192000917082E066E0492F0E9462098F85982FAE
:10193000991F9927991F82E067E0492F0E94620949
:1019400081E062E041E00E94620980E090E0A0E076
:10195000B0E48B879C87AD87BE876B857C858D8542
:101960009E8520E030E04AEF54E40E941F02DC0133
:10197000CB018F839887A987BA876F8178858985FE
:101980009A8520E030E040E85FE30E9479038823F5
:101990002CF481E090E09E838D833FC06F81788539
:1019A00089859A8520E03FEF4FE757E40E941903AD
:1019B00018164CF56B857C858D859E8520E030E082
:1019C00040E251E40E941F02DC01CB01BC01CD01C9
:1019D0000E944900DC01CB019E838D830FC088ECFF
:1019E00090E09C838B838B819C810197F1F79C8392
:1019F0008B838D819E8101979E838D838D819E81B6
:101A0000009769F714C06F81788589859A850E944F
:101A10004900DC01CB019E838D838D819E819A8359
:101A2000898389819A810197F1F79A83898381E07B
:101A300062E040E00E9462092F960FB6F894DEBF84
:101A40000FBECDBFCF91DF910895DF93CF93CDB778
:101A5000DEB7EA970FB6F894DEBF0FBECDBF82E0C7
:101A600060E041E00E94500882E061E041E00E94B5
:101A7000500882E062E041E00E94500882E063E0AA
:101A800041E00E94500882E064E041E00E9450087A
:101A900082E065E041E00E94500882E066E041E0BB
:101AA0000E94500882E067E041E00E94500881E017
:101AB00060E041E00E94500881E061E041E00E9466
:101AC000500881E062E041E00E94500880E090E030
:101AD000A0E2B2E48DAB9EABAFABB8AF6DA97EA96F
:101AE0008FA998AD20E030E04AEF54E40E941F0235
:101AF000DC01CB0189AB9AABABABBCAB69A97AA9D2
:101B00008BA99CA920E030E040E85FE30E947903C4
:101B100088232CF481E090E098AB8FA73FC069A99F
:101B20007AA98BA99CA920E03FEF4FE757E40E94D8
:101B3000190318164CF56DA97EA98FA998AD20E060
:101B400030E040E251E40E941F02DC01CB01BC0105
:101B5000CD010E944900DC01CB0198AB8FA70FC0DB
:101B600088EC90E09EA78DA78DA59EA50197F1F723
:101B70009EA78DA78FA598A9019798AB8FA78FA532
:101B800098A9009769F714C069A97AA98BA99CA99B
:101B90000E944900DC01CB0198AB8FA78FA598A9C3
:101BA0009CA78BA78BA59CA50197F1F79CA78BA75A
:101BB00088E30E943A0C80E090E0A0E8BFE38FA3A6
:101BC00098A7A9A7BAA76FA178A589A59AA520E08B
:101BD00030E04AEF54E40E941F02DC01CB018BA3EA
:101BE0009CA3ADA3BEA36BA17CA18DA19EA120E06F
:101BF00030E040E85FE30E94790388232CF481E021
:101C000090E09AA389A33FC06BA17CA18DA19EA166
:101C100020E03FEF4FE757E40E94190318164CF5F8
:101C20006FA178A589A59AA520E030E040E251E4B3
:101C30000E941F02DC01CB01BC01CD010E944900C2
:101C4000DC01CB019AA389A30FC088EC90E098A394
:101C50008F8F8F8D98A10197F1F798A38F8F89A10E
:101C60009AA101979AA389A389A19AA1009769F7DC
:101C700014C06BA17CA18DA19EA10E944900DC0132
:101C8000CB019AA389A389A19AA19E8F8D8F8D8D57
:101C90009E8D0197F1F79E8F8D8F8EE00E943A0CFA
:101CA00080E090E0A0E8BFE3898F9A8FAB8FBC8F74
:101CB000698D7A8D8B8D9C8D20E030E04AEF54E465
:101CC0000E941F02DC01CB018D8B9E8BAF8BB88FE6
:101CD0006D897E898F89988D20E030E040E85FE350
:101CE0000E94790388232CF481E090E09C8B8B8BFD
:101CF0003FC06D897E898F89988D20E03FEF4FE747
:101D000057E40E94190318164CF5698D7A8D8B8D56
:101D10009C8D20E030E040E251E40E941F02DC0193
:101D2000CB01BC01CD010E944900DC01CB019C8BA1
:101D30008B8B0FC088EC90E09A8B898B89899A896C
:101D40000197F1F79A8B898B8B899C8901979C8BE2
:101D50008B8B8B899C89009769F714C06D897E896C
:101D60008F89988D0E944900DC01CB019C8B8B8B65
:101D70008B899C89988B8F878F8598890197F1F73C
:101D8000988B8F8781E00E943A0C80E090E0A0E47D
:101D9000B0E48B879C87AD87BE876B857C858D85FE
:101DA0009E8520E030E04AEF54E40E941F02DC01EF
:101DB000CB018F839887A987BA876F8178858985BA
:101DC0009A8520E030E040E85FE30E9479038823B1
:101DD0002CF481E090E09E838D833FC06F817885F5
:101DE00089859A8520E03FEF4FE757E40E94190369
:101DF00018164CF56B857C858D859E8520E030E03E
:101E000040E251E40E941F02DC01CB01BC01CD0184
:101E10000E944900DC01CB019E838D830FC088ECBA
:101E200090E09C838B838B819C810197F1F79C834D
:101E30008B838D819E8101979E838D838D819E8171
:101E4000009769F714C06F81788589859A850E940B
:101E50004900DC01CB019E838D838D819E819A8315
:101E6000898389819A810197F1F79A83898386E032
:101E70000E943A0C80E40E943A0C1AAE20C019AEBF
:101E800018C08AAD482F50E089AD282F30E0CA0134
:101E9000880F991F880F991F880F991F820F931F12
:101EA000FC01EC58FE4F80810E94F50F89AD8F5FD9
:101EB00089AF89AD883028F38AAD8F5F8AAF8AAD4C
:101EC0008830E8F20E946512EA960FB6F894DEBFF9
:101ED0000FBECDBFCF91DF910895DF93CF93CDB7E4
:101EE000DEB72E970FB6F894DEBF0FBECDBF81E0F0
:101EF0000E943A0C80E090E0A0E4B0E48B879C87DD
:101F0000AD87BE876B857C858D859E8520E030E022
:101F10004AEF54E40E941F02DC01CB018F839887B3
:101F2000A987BA876F81788589859A8520E030E016
:101F300040E85FE30E94790388232CF481E090E07D
:101F40009E838D833FC06F81788589859A8520E047
:101F50003FEF4FE757E40E94190318164CF56B85C5
:101F60007C858D859E8520E030E040E251E40E9432
:101F70001F02DC01CB01BC01CD010E944900DC0144
:101F8000CB019E838D830FC088EC90E09C838B8374
:101F90008B819C810197F1F79C838B838D819E813E
:101FA00001979E838D838D819E81009769F714C070
:101FB0006F81788589859A850E944900DC01CB0173
:101FC0009E838D838D819E819A83898389819A8165
:101FD0000197F1F79A8389832E960FB6F894DEBFA6
:101FE0000FBECDBFCF91DF910895DF93CF93CDB7D3
:101FF000DEB72F970FB6F894DEBF0FBECDBF8F8729
:1020000081E060E041E00E94620981E061E040E03F
:102010000E9462098F85982F917082E060E0492FBD
:102020000E9462098F858695982F917082E061E009
:10203000492F0E9462098F8586958695982F917009
:1020400082E062E0492F0E9462098F85869586951D
:102050008695982F917082E063E0492F0E94620973
:102060008F8582958F70982F917082E064E0492F60
:102070000E9462098F85829586958770982F91704E
:1020800082E065E0492F0E9462098F8582958695DE
:1020900086958370982F917082E066E0492F0E94A8
:1020A00062098F85982F991F9927991F82E067E011
:1020B000492F0E94620981E062E041E00E946209CA
:1020C00080E090E0A0E0B0E48B879C87AD87BE877E
:1020D0006B857C858D859E8520E030E04AEF54E459
:1020E0000E941F02DC01CB018F839887A987BA87E2
:1020F0006F81788589859A8520E030E040E85FE34C
:102100000E94790388232CF481E090E09E838D83E4
:102110003FC06F81788589859A8520E03FEF4FE742
:1021200057E40E94190318164CF56B857C858D8544
:102130009E8520E030E040E251E40E941F02DC0175
:10214000CB01BC01CD010E944900DC01CB019E8383
:102150008D830FC088EC90E09C838B838B819C8166
:102160000197F1F79C838B838D819E8101979E83DC
:102170008D838D819E81009769F714C06F8178856A
:1021800089859A850E944900DC01CB019E838D835D
:102190008D819E819A83898389819A810197F1F744
:1021A0009A83898381E062E040E00E9462092F9671
:1021B0000FB6F894DEBF0FBECDBFCF91DF9108956B
:1021C000DF93CF9300D00F92CDB7DEB79B838A8386
:1021D00019820EC08981282F30E08A819B81FC0101
:1021E000E20FF31F80810E94F50F89818F5F898341
:1021F0008981282F30E08A819B81FC01E20FF31F47
:102200008081882339F70F900F900F90CF91DF9145
:102210000895DF93CF93CDB7DEB763970FB6F894E9
:10222000DEBF0FBECDBF998B888B7B8B6A8B1F86E1
:1022300087C08F85282F30E088899989FC01E20FBB
:10224000F31F80810E94F50F8A899B89CC01A0E051
:10225000B0E0BC01CD010E94FD03DC01CB018B8706
:102260009C87AD87BE876B857C858D859E8520E0AC
:1022700030E04AEF54E40E941F02DC01CB018F835F
:102280009887A987BA876F81788589859A8520E0A4
:1022900030E040E85FE30E94790388232CF481E07A
:1022A00090E09E838D833FC06F81788589859A8574
:1022B00020E03FEF4FE757E40E94190318164CF552
:1022C0006B857C858D859E8520E030E040E251E481
:1022D0000E941F02DC01CB01BC01CD010E9449001C
:1022E000DC01CB019E838D830FC088EC90E09C8342
:1022F0008B838B819C810197F1F79C838B838D81EC
:102300009E8101979E838D838D819E81009769F7C1
:1023100014C06F81788589859A850E944900DC0107
:10232000CB019E838D838D819E819A838983898150
:102330009A810197F1F79A8389838F858F5F8F87C1
:102340008F85282F30E088899989FC01E20FF31FDF
:102350008081882309F06DCF63960FB6F894DEBFB5
:102360000FBECDBFCF91DF910895DF93CF93CDB74F
:10237000DEB72E970FB6F894DEBF0FBECDBF84E058
:102380000E943A0C80E090E0A0E0B0E48B879C874C
:10239000AD87BE876B857C858D859E8520E030E08E
:1023A0004AEF54E40E941F02DC01CB018F8398871F
:1023B000A987BA876F81788589859A8520E030E082
:1023C00040E85FE30E94790388232CF481E090E0E9
:1023D0009E838D833FC06F81788589859A8520E0B3
:1023E0003FEF4FE757E40E94190318164CF56B8531
:1023F0007C858D859E8520E030E040E251E40E949E
:102400001F02DC01CB01BC01CD010E944900DC01AF
:10241000CB019E838D830FC088EC90E09C838B83DF
:102420008B819C810197F1F79C838B838D819E81A9
:1024300001979E838D838D819E81009769F714C0DB
:102440006F81788589859A850E944900DC01CB01DE
:102450009E838D838D819E819A83898389819A81D0
:102460000197F1F79A8389832E960FB6F894DEBF11
:102470000FBECDBFCF91DF910895DF93CF9300D0F2
:1024800000D0CDB7DEB789836A838A81282F30E0F8
:102490003C832B838B819C818130910531F02B8192
:1024A0003C812230310531F009C0898180580E9479
:1024B0003A0C04C0898180540E943A0C0F900F900E
:1024C0000F900F90CF91DF910895DF93CF93CDB709
:1024D000DEB72E970FB6F894DEBF0FBECDBF82E0F9
:1024E0000E943A0C80E090E0A0E0B0E48B879C87EB
:1024F000AD87BE876B857C858D859E8520E030E02D
:102500004AEF54E40E941F02DC01CB018F839887BD
:10251000A987BA876F81788589859A8520E030E020
:1025200040E85FE30E94790388232CF481E090E087
:102530009E838D833FC06F81788589859A8520E051
:102540003FEF4FE757E40E94190318164CF56B85CF
:102550007C858D859E8520E030E040E251E40E943C
:102560001F02DC01CB01BC01CD010E944900DC014E
:10257000CB019E838D830FC088EC90E09C838B837E
:102580008B819C810197F1F79C838B838D819E8148
:1025900001979E838D838D819E81009769F714C07A
:1025A0006F81788589859A850E944900DC01CB017D
:1025B0009E838D838D819E819A83898389819A816F
:1025C0000197F1F79A8389832E960FB6F894DEBFB0
:1025D0000FBECDBFCF91DF910895DF93CF9300D091
:1025E00000D000D0CDB7DEB76B837C838D839E8314
:1025F0008B819C8129813A81B9014AE050E00E9497
:102600005F1989819A810E94E01026960FB6F8948E
:10261000DEBF0FBECDBFCF91DF910895DF93CF9383
:10262000CDB7DEB72E970FB6F894DEBF0FBECDBF85
:1026300080E10E943A0C80E090E0A0E0B0E48B875B
:102640009C87AD87BE876B857C858D859E8520E0C8
:1026500030E04AEF54E40E941F02DC01CB018F837B
:102660009887A987BA876F81788589859A8520E0C0
:1026700030E040E85FE30E94790388232CF481E096
:1026800090E09E838D833FC06F81788589859A8590
:1026900020E03FEF4FE757E40E94190318164CF56E
:1026A0006B857C858D859E8520E030E040E251E49D
:1026B0000E941F02DC01CB01BC01CD010E94490038
:1026C000DC01CB019E838D830FC088EC90E09C835E
:1026D0008B838B819C810197F1F79C838B838D8108
:1026E0009E8101979E838D838D819E81009769F7DE
:1026F00014C06F81788589859A850E944900DC0124
:10270000CB019E838D838D819E819A83898389816C
:102710009A810197F1F79A8389832E960FB6F894E0
:10272000DEBF0FBECDBFCF91DF910895DF93CF9372
:10273000CDB7DEB72E970FB6F894DEBF0FBECDBF74
:1027400084E10E943A0C80E090E0A0E0B0E48B8746
:102750009C87AD87BE876B857C858D859E8520E0B7
:1027600030E04AEF54E40E941F02DC01CB018F836A
:102770009887A987BA876F81788589859A8520E0AF
:1027800030E040E85FE30E94790388232CF481E085
:1027900090E09E838D833FC06F81788589859A857F
:1027A00020E03FEF4FE757E40E94190318164CF55D
:1027B0006B857C858D859E8520E030E040E251E48C
:1027C0000E941F02DC01CB01BC01CD010E94490027
:1027D000DC01CB019E838D830FC088EC90E09C834D
:1027E0008B838B819C810197F1F79C838B838D81F7
:1027F0009E8101979E838D838D819E81009769F7CD
:1028000014C06F81788589859A850E944900DC0112
:10281000CB019E838D838D819E819A83898389815B
:102820009A810197F1F79A8389832E960FB6F894CF
:10283000DEBF0FBECDBFCF91DF910895DF93CF9361
:10284000CDB7DEB72E970FB6F894DEBF0FBECDBF63
:102850008CE10E943A0C80E090E0A0E0B0E48B872D
:102860009C87AD87BE876B857C858D859E8520E0A6
:1028700030E04AEF54E40E941F02DC01CB018F8359
:102880009887A987BA876F81788589859A8520E09E
:1028900030E040E85FE30E94790388232CF481E074
:1028A00090E09E838D833FC06F81788589859A856E
:1028B00020E03FEF4FE757E40E94190318164CF54C
:1028C0006B857C858D859E8520E030E040E251E47B
:1028D0000E941F02DC01CB01BC01CD010E94490016
:1028E000DC01CB019E838D830FC088EC90E09C833C
:1028F0008B838B819C810197F1F79C838B838D81E6
:102900009E8101979E838D838D819E81009769F7BB
:1029100014C06F81788589859A850E944900DC0101
:10292000CB019E838D838D819E819A83898389814A
:102930009A810197F1F79A8389832E960FB6F894BE
:10294000DEBF0FBECDBFCF91DF910895DF93CF9350
:10295000CDB7DEB72E970FB6F894DEBF0FBECDBF52
:1029600088E10E943A0C80E090E0A0E0B0E48B8720
:102970009C87AD87BE876B857C858D859E8520E095
:1029800030E04AEF54E40E941F02DC01CB018F8348
:102990009887A987BA876F81788589859A8520E08D
:1029A00030E040E85FE30E94790388232CF481E063
:1029B00090E09E838D833FC06F81788589859A855D
:1029C00020E03FEF4FE757E40E94190318164CF53B
:1029D0006B857C858D859E8520E030E040E251E46A
:1029E0000E941F02DC01CB01BC01CD010E94490005
:1029F000DC01CB019E838D830FC088EC90E09C832B
:102A00008B838B819C810197F1F79C838B838D81D4
:102A10009E8101979E838D838D819E81009769F7AA
:102A200014C06F81788589859A850E944900DC01F0
:102A3000CB019E838D838D819E819A838983898139
:102A40009A810197F1F79A8389832E960FB6F894AD
:102A5000DEBF0FBECDBFCF91DF910895DF93CF933F
:102A6000CDB7DEB72E970FB6F894DEBF0FBECDBF41
:102A700080EC0E943A0C80E090E0A0E0B0E48B870C
:102A80009C87AD87BE876B857C858D859E8520E084
:102A900030E04AEF54E40E941F02DC01CB018F8337
:102AA0009887A987BA876F81788589859A8520E07C
:102AB00030E040E85FE30E94790388232CF481E052
:102AC00090E09E838D833FC06F81788589859A854C
:102AD00020E03FEF4FE757E40E94190318164CF52A
:102AE0006B857C858D859E8520E030E040E251E459
:102AF0000E941F02DC01CB01BC01CD010E944900F4
:102B0000DC01CB019E838D830FC088EC90E09C8319
:102B10008B838B819C810197F1F79C838B838D81C3
:102B20009E8101979E838D838D819E81009769F799
:102B300014C06F81788589859A850E944900DC01DF
:102B4000CB019E838D838D819E819A838983898128
:102B50009A810197F1F79A8389832E960FB6F8949C
:102B6000DEBF0FBECDBFCF91DF910895DF93CF932E
:102B7000CDB7DEB72E970FB6F894DEBF0FBECDBF30
:102B800080E80E943A0C80E090E0A0E0B0E48B87FF
:102B90009C87AD87BE876B857C858D859E8520E073
:102BA00030E04AEF54E40E941F02DC01CB018F8326
:102BB0009887A987BA876F81788589859A8520E06B
:102BC00030E040E85FE30E94790388232CF481E041
:102BD00090E09E838D833FC06F81788589859A853B
:102BE00020E03FEF4FE757E40E94190318164CF519
:102BF0006B857C858D859E8520E030E040E251E448
:102C00000E941F02DC01CB01BC01CD010E944900E2
:102C1000DC01CB019E838D830FC088EC90E09C8308
:102C20008B838B819C810197F1F79C838B838D81B2
:102C30009E8101979E838D838D819E81009769F788
:102C400014C06F81788589859A850E944900DC01CE
:102C5000CB019E838D838D819E819A838983898117
:102C60009A810197F1F79A8389832E960FB6F8948B
:102C7000DEBF0FBECDBFCF91DF910895DF93CF931D
:102C8000CDB7DEB783E060E040E00E94500883E00B
:102C900061E040E00E94500883E062E040E00E9472
:102CA000500883E063E040E00E94500883E064E065
:102CB00041E00E94500883E065E041E00E94500836
:102CC00083E066E041E00E94500883E067E041E075
:102CD0000E94500883E060E041E00E94620983E0C6
:102CE00061E041E00E94620983E062E041E00E940D
:102CF000620983E063E041E00E94620983E064E0EE
:102D000041E00E94620983E065E041E00E946209BF
:102D100083E066E041E00E94620983E067E041E011
:102D20000E946209CF91DF910895DF93CF93CDB7D1
:102D3000DEB7A9970FB6F894DEBF0FBECDBF83E014
:102D40008C8383E08D8383E08E8383E08F8383E0B5
:102D5000888783E0898783E08A8783E08B871C8666
:102D600081E08D8782E08E8783E08F8784E0888B87
:102D700085E0898B86E08A8B87E08B8B8FEF898358
:102D8000CE0145969EA38DA3E4EBF1E0F8A7EFA357
:102D9000F0E1F9A7EFA1F8A500808FA198A5019611
:102DA00098A78FA3EDA1FEA100828DA19EA10196FF
:102DB0009EA38DA399A5915099A7E9A5EE2351F75C
:102DC0001A8289C08A81282F30E0CE010896FC0142
:102DD000E20FF31F40818A81282F30E0CE01409618
:102DE000FC01E20FF31F9081842F692F40E00E94C5
:102DF00062091B8252C08B81282F30E0CE010496DD
:102E0000FC01E20FF31F40818B81282F30E0CE01BF
:102E10000C96FC01E20FF31F90819E012C5E3F4F48
:102E2000842F692FA9010E94740A8C89882391F547
:102E30008A81282F30E08B81482F50E0220F331FEA
:102E4000220F331FCE010196820F931F840F951F0F
:102E5000FC017496808189831AC08B81282F30E011
:102E6000CE010496FC01E20FF31F40818B81282FD5
:102E700030E0CE010C96FC01E20FF31F90819E0121
:102E80002C5E3F4F842F692FA9010E94740A8C8900
:102E9000882319F38B818F5F8B838B81843008F4B7
:102EA000AACF8A81282F30E0CE010896FC01E20FDC
:102EB000F31F40818A81282F30E0CE014096FC012B
:102EC000E20FF31F9081842F692F41E00E94620975
:102ED0008A818F5F8A838A81843008F473CF8981E5
:102EE000A9960FB6F894DEBF0FBECDBFCF91DF918C
:102EF0000895DF93CF93CDB7DEB783E060E00E9403
:102F00001D0783E06FEF0E946507CF91DF91089561
:102F1000DF93CF93CDB7DEB780E061E040E00E9461
:102F2000500880E061E041E00E946209CF91DF91AA
:102F30000895DF93CF9300D0CDB7DEB79A8389830E
:102F400029813A8180E061E0A9010E94740A0F9012
:102F50000F90CF91DF910895DF93CF93CDB7DEB778
:102F600082E06FEF0E941D07CF91DF910895DF93FC
:102F7000CF930F92CDB7DEB7898389818A3058F419
:102F80008981882F90E0FC01EC53FE4F908182E014
:102F9000692F0E9465070F90CF91DF9108951F92CE
:102FA0000F920FB60F9211242F933F934F935F937D
:102FB0008F939F93AF93BF93EF93FF93DF93CF9341
:102FC000CDB7DEB78091D701882389F4E6E4F0E03D
:102FD000118210821092CE01AEE4B0E0EEE4F0E097
:102FE000808180648C9381E08093D7015BC0809165
:102FF000D701813039F5E6E4F0E0808191819C01D0
:1030000040E050E08091CE01882F90E0A0E0B0E059
:10301000DC0199278827820F931FA41FB51F809377
:10302000CF019093D001A093D101B093D201AEE42F
:10303000B0E0EEE4F0E0808180648C9382E08093E5
:10304000D70130C08091D701823061F5E6E4F0E02D
:10305000808191819C0140E050E08091CE01882FD9
:1030600090E0A0E0B0E0DC0199278827820F931F51
:10307000A41FB51F8093D3019093D401A093D501D1
:10308000B093D601AEE4B0E0EEE4F0E080818F7B57
:103090008C93E6E4F0E0118210821092CE0181E080
:1030A0008093D701CF91DF91FF91EF91BF91AF91C5
:1030B0009F918F915F914F913F912F910F900FBEF4
:1030C0000F901F9018951F920F920FB60F92112418
:1030D0008F93EF93FF93DF93CF93CDB7DEB7ECE5FC
:1030E000F0E08FE78083CF91DF91FF91EF918F9197
:1030F0000F900FBE0F901F901895DF93CF93CDB711
:10310000DEB7AFE4B0E0EFE4F0E080818E7F8C9337
:10311000AFE4B0E0EFE4F0E080818D7F8C93AFE42A
:10312000B0E0EFE4F0E080818F7B8C93AFE4B0E01F
:10313000EFE4F0E080818F778C93AFE4B0E0EFE4D0
:10314000F0E080818F7E8C93AFE4B0E0EFE4F0E0BC
:1031500080818F7D8C93AEE4B0E0EEE4F0E080817E
:103160008F7E8C93AEE4B0E0EEE4F0E08081877F68
:103170008C93AEE4B0E0EEE4F0E080818F778C9346
:10318000AEE4B0E0EEE4F0E0808180648C93ECE4A7
:10319000F0E011821082A9E5B0E0E9E5F0E080817D
:1031A00080628C93AEE4B0E0EEE4F0E08081816078
:1031B0008C93AEE4B0E0EEE4F0E080818B7F8C9302
:1031C000AEE4B0E0EEE4F0E080818D7F8C93CF91AF
:1031D000DF910895DF93CF93CDB7DEB70E94250D21
:1031E00081E063E041E00E9450080E946B0683E0AA
:1031F00066E040E00E94500883E066E041E00E9403
:1032000062090E947D180E94B61580E690E00E9437
:10321000E0108091CF019091D001A091D101B091A7
:10322000D201BC01CD010E94ED120E942E1585E64F
:1032300090E00E94E0108091D3019091D401A09180
:10324000D501B091D601BC01CD010E94ED12DBCFBA
:103250002F923F924F925F926F927F928F929F92A6
:10326000AF92BF92CF92DF92EF92FF920F931F9394
:10327000CF93DF93CDB7DEB7CA1BDB0B0FB6F89445
:10328000DEBF0FBECDBF09942A88398848885F8485
:103290006E847D848C849B84AA84B984C884DF80F6
:1032A000EE80FD800C811B81AA81B981CE0FD11DDA
:1032B0000FB6F894DEBF0FBECDBFED010895FB0140
:1032C0009F01E8944230C4F04532B4F44A3029F406
:1032D00097FB1EF4909581959F4F642F77270E944E
:1032E0009019805D8A330CF0895D8193CB01009742
:1032F000A1F716F45DE251931082C9010C94801974
:10330000DC01FC01672F71917723E1F7329704C04C
:103310007C916D9370836291AE17BF07C8F30895D7
:10332000AA1BBB1B51E107C0AA1FBB1FA617B707EB
:1033300010F0A61BB70B881F991F5A95A9F7809507
:0C3340009095BC01CD010895F894FFCFDA
:10334C00544F4E3A00545F746F743A000000000002
:10335C000000000000010202030303030404040440
:10336C000404040405050505050505050505050505
:10337C0005050505060606060606060606060606E5
:10338C0006060606060606060606060606060606D1
:10339C0006060606070707070707070707070707B5
:1033AC0007070707070707070707070707070707A1
:1033BC000707070707070707070707070707070791
:1033CC000707070707070707070707070707070781
:1033DC000707070708080808080808080808080865
:1033EC000808080808080808080808080808080851
:1033FC000808080808080808080808080808080841
:10340C000808080808080808080808080808080830
:10341C000808080808080808080808080808080820
:10342C000808080808080808080808080808080810
:10343C000808080808080808080808080808080800
:10344C0008080808080808080808080808080808F0
:10345C0008080808000007051F00000000001804F9
:10346C001F000000000000001F0A0E0000001804DE
:10347C001F00000000000000000000000000070416
:10348C001F00000002120A061F00000000000E08B8
:10349C001E0000000102030405060708090A0B0CB4
:0E34AC000D0E0F103F065B4F666D7D077F6FA4
:00000001FF
